:04000000C4EF3EF01B
:08000800010EEA6EE96EEF50F3
:100010000EE00F0E016E006A002EFED7012EFBD7F8
:100020008F0E006E002EFED70000EF2EF2D7000CD0
:10650000F76A100FF66E650EF7220900F5501200BB
:10651000000302FFFFFFFFFFFFFFFFFFFFFFFFFF83
:10652000F76A300FF66E650EF7220900F55012007B
:1065300000FF02FFFFFFFFFFFFFFFFFFFFFFFFFF67
:10654000F76A500FF66E650EF7220900F55012003B
:1065500040000800400000000000000000000000B3
:10656000000000000000000000000000000000002B
:10657000F76A800FF66E650EF7220900F5501200DB
:10658000400000004000000000000000000000008B
:1065900000000000000000000000000000000000FB
:1065A000F76AB00FF66E650EF7220900F55012007B
:1065B00009024300020100803209040000010202C6
:1065C0000100052400100104240202052406000134
:1065D0000524010001070581030800FA09040100F0
:1065E000020A0000000705020240000107058202BE
:1065F00040000100F76A040FF66E660EF7220900EC
:10660000F55012000200F76A160FF66E660EF722BA
:106610000900F550120012171B20FFFFFFFFF76A59
:106620002E0FF66E660EF7220900F55012001201C9
:10663000100102000040610433000001010200016A
:10664000F76A500FF66E660EF7220900F550120039
:1066500004030904080343004300530018035300D4
:1066600045005200490041004C0020004400450014
:106670004D004F00010111511303F3CF01F0F4CF8E
:1066800000F01403F350002612511303F3500020BE
:10669000026E0001000C036A01010151700FE96EE6
:1066A0000F0E0320EA6EEF5214E0126B01C111F1DC
:1066B000146B080E136F0001DDDF02C003F101014E
:1066C00001C0E9FF040E0224EA6EEFCF02F102AF2F
:1066D00002D0000E01D0010E016E0001000C01017C
:1066E000126B06C111F1146B080E136F0001C2DFAB
:1066F00001C010F1020E01010124016E000E022002
:10670000036E01C0E9FF040E0324EA6EECCF03F030
:10671000ED52EFCF0BF103C00CF1126B06C111F17A
:10672000146B080E136F0001A5DF01C010F1010EFC
:1067300001010124016E000E0220036E01C0E9FF79
:10674000040E0324EA6EEF50036A0E6F03C00FF1CC
:10675000126B06C111F1146B080E136F00018ADF72
:10676000010101C0E9FF040E0224EA6EEFCF0DF132
:106770000DB10F810DB30F830F510A5D08E303E1E3
:1067800009510E5D04E20FC10AF10EC109F108C101
:10679000EAFF07C1E9FF0CC1E2FF0BC1E1FF0AC13B
:1067A00002F009C101F0015202E0022A02D00252B5
:1067B00006E0E6CFEEFF012EFCD7022EFAD709C184
:1067C00001F00AC102F00001000C0101126B06C1C8
:1067D00011F1146B080E136F00014CDF010101C0B1
:1067E000E9FF040E0224EA6EEFCF08F10751020818
:1067F00006E108AD02D0076B02D0010E076F07510A
:1068000003081BE1840E086F126B06C111F1146BB3
:10681000080E136F00012EDF02C00CF101C00BF156
:10682000040E01010B27000E0C230BC1E9FF040E1F
:106830000C25EA6E840EEF6E07D0072D03D0C80E2C
:10684000086F02D0880E086FD8900635036A0001E1
:106850008FDE0900F5CF03F00101096F03C00AF1D3
:10686000126B06C111F1146B080E136F000102DFE9
:1068700001C00BF1010E01010124016E000E022086
:10688000036E01C0E9FF040E0324EA6E09C1EFFFA5
:106890000AB108810AB30883126B06C111F1146BA7
:1068A000080E136F0001E6DE010101C0E9FF040ECE
:1068B0000224EA6E08C1EFFF0001000C01C106F1DD
:1068C00003C108F102C107F105C10AF104C109F1D0
:1068D00006DF02C005F101C004F101C106F1020E9C
:1068E0000101076F000171DF010104C101F005C161
:1068F00002F00001000C0550016E000C055202E18F
:106900000400FCD7000C01010D6B0E6B010E0F6F24
:10691000DA6AD96A126F050E116F010EEA6E090E5E
:10692000E96E12C1E2FF11C1E1FF0FC110F1D89071
:10693000E550EE02F3500D23F4500E23102FF7D73D
:106940000DC1DEFF0EC10DF10E6BD8B00E2B112B59
:10695000D8B4122B0F2B0F510508DFE10001000CFA
:10696000036A01011051700FE96E0F0E0320EA6EE9
:10697000EF521AE0126B10C111F1146B080E136F75
:10698000000178DE02C012F101C011F1040E010114
:106990001127000E122311C1E9FF040E1225EA6E21
:1069A000EFCF11F111AF02D0000E01D0010E016E38
:1069B0000001000C0BC110F1D3DF0152D8B482D01A
:1069C0000101126B0BC111F1146B080E136F000162
:1069D00051DE02C011F101C010F1040E01011027B7
:1069E000000E1123010E1025016E000E1121036E01
:1069F00001C0E9FF040E0324EA6E0CC1EFFF0E5143
:106A000002081FE1126B0BC111F1146B080E136F1A
:106A1000000130DE02C011F101C010F1040E0101CD
:106A20001027000E112310C1E9FF040E1125EA6E94
:106A3000EFCF0FF10FAD02D00E6B02D0010E0E6F33
:106A400019D00E51040816E1126B0BC111F1146B31
:106A5000080E136F00010EDE010101C0E9FF040EF4
:106A60000224EA6EEFCF0FF10FAD03D0010E0E6FCF
:106A700001D00E6B0E2D03D0C80E0F6F02D0880E02
:106A80000F6F0DB10F810DB30F83126B0BC111F19D
:106A9000146B080E136F0001EDDD02C011F101C08F
:106AA00010F1040E01011027000E112310C1E9FF9F
:106AB000040E1125EA6E0FC1EFFF010E016E05D025
:106AC00000D00001000E016E01010001000C03C1A5
:106AD00010F146DF015249E00101126B03C111F1CF
:106AE000146B080E136F0001C5DD02C00CF101C06C
:106AF0000BF1040E01010B27000E0C23020E0B25D7
:106B0000016E000E0C21036E01C0E9FF040E032488
:106B1000EA6EECCF03F0ED52EFCF09F103C00AF1BA
:106B20000AC1EAFF09C1E9FF05C1E2FF04C1E1FFB3
:106B300007C102F006C101F0015202E0022A02D0B0
:106B4000025206E0E6CFEEFF012EFCD7022EFAD766
:106B500003C10BF107C10DF106C10CF108C10EF123
:106B6000000128DF015003D000D0000E016E000CA0
:106B7000F76BF66BD890F035036AE2DC0900F5CFCD
:106B800003F0FB6F03C0FCF0F751F45DD8A084D094
:106B900004E1F351F65DD8B07FD00101046B036BC3
:106BA000026BF5C001F104C108F103C107F102C194
:106BB00006F1F5C005F10C6B0B6B030E0A6FE80EC6
:106BC000096F0001A0DE03C000F102C0FFF001C0A8
:106BD000FEF000C0FDF0F651F35D0101016F000110
:106BE000F751F4590101026F0001FC510101025DEE
:106BF0000EE308E101510001FB5DD8A002D00101C4
:106C000006D00101FCC0FAF0FBC0F9F008D0000189
:106C1000F651F35DF96FF751F459FA6F0101000174
:106C2000F651F1250101016F0001F751F221010137
:106C3000026FF0C003F1056F01C104F1FAC007F162
:106C4000F9C006F1020E086F000141DFF89101B0B2
:106C5000F881F8B110D0030E006E002EFED700D0E0
:106C6000FF0EFD27D8A0FE27D8A0FF27D8B003D05D
:106C7000010100270001F8B10AD0FD53D1E1FE5314
:106C8000CFE1FF53CDE101010053C9E10001FB5108
:106C9000F627FC51F72378D7F351F65D50E1F45114
:106CA000F75D4DE10101046B036B026BF5C001F16F
:106CB00004C108F103C107F102C106F1F5C005F1F5
:106CC0000C6B0B6B030E0A6FE80E096F00011BDEE5
:106CD00003C000F102C0FFF001C0FEF000C0FDF0F3
:106CE000F0C003F10101056B046B076B066B020E2C
:106CF000086F0001ECDEF89101B0F881F8B110D016
:106D0000030E006E002EFED700D0FF0EFD27D8A088
:106D1000FE27D8A0FF27D8B003D00101002700012B
:106D2000F8B10DD0FD53DCE1FE53DAE1FF53D8E1B9
:106D300001010053D8B402D00001D2D70001000EE7
:106D4000F8B1010E016E000CF86BF76BD890F035BE
:106D5000036A0EDC0900F5CF03F0FD6F03C0FEF0FF
:106D6000FE51F45D09E303E1F351FD5D05E2FEC070
:106D700000F1FDC0FFF004D0F4C000F1F3C0FFF05B
:106D8000FA6BF96BF0C001F186DC01521DE0F0C036
:106D900001F1F2C003F1F1C002F100C105F1FFC041
:106DA00004F18CDD02C0FCF001C0FBF0FB51F127C7
:106DB000FC51F223FB51F35FFC51F45BFB51F727CD
:106DC000FC51F82310D009D0F92BD8B4FA2B010EBE
:106DD0000101016F000104EC00F0F551F95DD2E111
:106DE000F651FA5DCFE1FD51FB5D0CE1FE51FC5D1A
:106DF00009E1F551F95D03E1F651FA5D03E0F35164
:106E0000F411AEE1F7C001F0F8C002F0000C6D9291
:106E1000699468A402D06894FCD7000C400E040169
:106E2000016F040E036F180E026F880E006F046B63
:106E3000040E076F580E066F0001000C70A002D000
:106E4000EDDF7090689A000C6A6A6892000C01018C
:106E5000049103BF0481039F0351100803E2000E55
:106E6000016E1DD004A10ED0036A0351000180EC15
:106E700032F0FF0802E1000E01D0010E016E0101A7
:106E80000ED00DD0036A0351000190EC32F0FF08E0
:106E900002E1000E01D0010E016E010100D00001DF
:106EA000000C036A01010251700FE96E0F0E0320FE
:106EB000EA6EEF6A02C103F10001C9DF015229E065
:106EC0000101126B02C111F1146B080E136F000166
:106ED0003AEC33F0010101C0E9FF040E0224EA6E2E
:106EE000EF6A126B02C111F1146B080E136F0001EF
:106EF0003AEC33F002C004F101C003F1040E0101C9
:106F00000327000E042303C1E9FF040E0425EA6EE3
:106F1000EF6A0001000C010E0101016F01510F0821
:106F200007E301C102F10001BCDF0101012BF6D72B
:106F30000001000C166A156A250E146E800E136E81
:106F4000176A186A080E196E686B67911B6A1A6ACD
:106F5000636B6491000CF76BF75101080AE3036A55
:106F6000F751110FE96E000E0320EA6EEF6AF72B5E
:106F7000F3D7E0DF056A010E066E046A000C68961E
:106F8000000C6A6A686A9F0E6B6E3D0E696E6E6ACF
:106F9000C2DFE1DF160E706E68A602D0F0DFFCD70C
:106FA0006D983CDF030E0C6E000C698468986D824E
:106FB000000C689C000CFCC00DF0000CFF0E0D6E68
:106FC000000CFA6B105229E0FA513F0826E30750F3
:106FD00005E0020A09E0010A0DE012D0036A0F5031
:106FE000D0EC32F0FB6F0CD0036A0F5020EC33F082
:106FF000FB6F06D0036A0F500FEC33F0FB6F00D02D
:107000000F2A1006FA51FA2B580FE96E040EEA6E99
:10701000D8B0EA2AFBC0EFFFD5D7105204E1FA51ED
:10702000400801E0046AFAC0FCF0C5DF000C0F6AFA
:10703000076A04011B51010A000107E0030A0AE084
:10704000010A0BE0220A1CE02ED0120E106E030E75
:10705000076E2BD0430E106E28D0020E076E036A07
:1070600004011A51080FE96E000E0320EA6EEFCFFB
:107070000FF0036A0F50000120EC33F0106E15D0B2
:10708000036A04011A51000103EC33F00F6E0F3C48
:1070900001D007D0036A0F50D0EC32F0106E05D04B
:1070A00002D08CDF0ED08ADF0CD004011F5305E123
:1070B00010501E5D02E21EC410F0010E046E0001AD
:1070C00080DF000CF95304E1040E0C6E24DFEDD0D8
:1070D000050E0C6E040EFC6F980EFB6F010EFA6F1E
:1070E000FA510F08D8A0E1D0FAC002F1DADEFD6B48
:1070F000036AFA5190EC32F0FF086FE0040EFD6F66
:10710000D890FA35036AB8EC32F00900F5CF03F0F5
:10711000FE6F03C0FFF00101126BFAC011F1146B96
:10712000080E136F00013AEC33F001C001F1010EBB
:1071300001010124016E000E0220036E01C0E9FF6F
:10714000040E0324EA6EFEC0EFFF126BFAC011F1C9
:10715000146B080E136F00013AEC33F001C001F11B
:10716000020E01010124016E000E0220036E01C017
:10717000E9FF040E0324EA6EFCC0ECFFED52FBC0F5
:10718000EFFFD8900001FA35036AB8EC32F009003D
:10719000F5CF03F0FB270350FC23880E0101006F9D
:1071A0000001FFA103D0010100810001FFA302D073
:1071B000010100830101126BFAC011F1146B080E7A
:1071C000136F00013AEC33F0010101C0E9FF040E36
:1071D0000224EA6E00C1EFFF0001036AFA5180EC5D
:1071E00032F0FF084BE0FD830101126BFAC011F190
:1071F000146B080E136F00013AEC33F002C002F179
:1072000001C001F1040E01010127000E0223020E4C
:107210000125016E000E0221036E01C0E9FF040E7C
:107220000324EA6EFCC0ECFFED52FBC0EFFFD890E8
:107230000001FA35036AA0EC32F00900F5CF03F043
:10724000FB270350FC230101126BFAC011F1146BF0
:10725000080E136F00013AEC33F002C002F101C0D6
:1072600001F1040E01010127000E022301C1E9FF13
:10727000040E0225EA6E400EEF6E0001FD51060875
:1072800002E10E0EFD6F036AFA5180EC32F0010844
:10729000D8A4FD89036AFA51700FE96E0F0E03201E
:1072A000EA6EFDC0EFFFFA2B1BD7000C0401195149
:1072B000000A00010DE0010A14E0020A1EE0060ABD
:1072C00027E0030A2CE00E0A2CE0010A30E03DD052
:1072D00006C058F40401596B020E0001FC6F6BDE0E
:1072E00036D004011A2D06D0010E06160001FC6BE3
:1072F00062DE02D0000162DE2AD004011A2D05D020
:1073000006820001FC6B57DE02D0000157DE1FD061
:10731000020E046E1AC40EF0FC6B4DDE18D087DE30
:1073200016D005C058F4010EFC6F45DE10D00401E4
:107330001A51010808E31AC405F01AC4F9F0000153
:10734000C1DEFC6B38DE000102D038DE00D0000C5C
:1073500005C0F9F004011951000A000105E00A0A0C
:107360000BE0010A27E038D00401586B596B020E7C
:107370000001FC6F20DE32D0F9531AE0010EF95DF6
:10738000036AFAEC32F0016E04011C5DD8A002D051
:1073900000010ED0036A1C51110FE96E000E03208C
:1073A000EA6EEFCF58F4010E0001FC6F04DE01D04D
:1073B00005DE14D0F9530EE0036A04011C51110FCD
:1073C000E96E000E0320EA6E1AC4EFFF0001FC6BA9
:1073D000F2DD01D0F3DD02D0F1DD00D0000CFA9136
:1073E000F9BFFA81F99FFAA11AD00101126BF9C015
:1073F00011F1146B080E136F00013AEC33F002C068
:10740000FCF001C0FBF0040EFB27000EFC23FBC0C8
:10741000E9FF040EFC25EA6E880EEF6E10D0010124
:10742000126BF9C011F1146B080E136F00013AECE6
:1074300033F001C0E9FF040E0224EA6EEF6A000C8B
:10744000FA91F9BFFA81F99FFAA11AD00101126BE2
:10745000F9C011F1146B080E136F00013AEC33F010
:1074600002C0FCF001C0FBF0040EFB27000EFC2361
:10747000FBC0E9FF040EFC25EA6E840EEF6E11D00E
:107480000101126BF9C011F1146B080E136F0001AA
:107490003AEC33F001C0E9FF040E0224EA6E840ED8
:1074A000EF6E000CFA91F9BFFA81F99FFAA11AD098
:1074B0000101126BF9C011F1146B080E136F00017A
:1074C0003AEC33F002C0FDF001C0FCF0040EFC27E2
:1074D000000EFD23FCC0E9FF040EFD25EA6EEFCF90
:1074E000FBF011D00101126BF9C011F1146B080E01
:1074F000136F00013AEC33F001C0E9FF040E0224DF
:10750000EA6EEFCFFBF0FBAF02D0FBB502D0000E6E
:1075100001D0010E016E000C1CC403F198DC015275
:1075200029E004011951010A000105E0020A09E0FD
:10753000030A0DE01DD01CC4F9F051DFFC6B3BDDEC
:1075400019D01CC4F9F07CDFFC6B35DD13D00401CD
:10755000586B596B1CC4F9F00001A4DF015204E020
:10756000010E0401586F0001020EFC6F24DD02D0F1
:1075700025DD00D0000CFE0E0D6E000C04011C2D4C
:1075800001D002D01C5349E11951000A00010BE05F
:10759000010A0DE0210A1CE0010A1FE0030A2EE0A7
:1075A000010A31E037D0010E6A6FE5DF35D0040EF5
:1075B000EA6E580EE96EE26A1C0EE16E080E016E6C
:1075C000E6CFEEFF012EFCD71EC4FCF0F4DC24D085
:1075D000020E6A6F6781CFDF1FD0040EEA6E580E6D
:1075E000E96EE26A130EE16E070E016EE6CFEEFF62
:1075F000012EFCD7070EFC6FDEDC0ED01AC468F03B
:10760000FC6BD9DC09D01AC41BF01BC41AF0FC6B4C
:10761000D2DC02D0D3DC00D004010001000C046AEB
:10762000040118517F0B000A000107E0010A07E07E
:10763000030A07E0230A07E008D038DE08D088DE16
:1076400006D06ADF04D09ADF02D0B8DC00D0000C8C
:107650006A51010A03E0030A12E022D0EA6A1C0E12
:10766000E96E040EE26E180EE16E080E016EE6CFB2
:10767000EEFF012EFCD7FC6B9EDC6A6B13D0EA6A2E
:10768000130EE96E040EE26E180EE16E070E016E27
:10769000E6CFEEFF012EFCD76A6BFC6B8CDC02D0D0
:1076A0006A6B00D0000C0101126BFAC011F1146B6F
:1076B000080E136F00013AEC33F002C0FCF001C079
:1076C000FBF0010E0124016E000E0220036E01C0CA
:1076D000E9FF040E0324EA6E036AEFCF01F003C052
:1076E00002F0000C6481666B020EFA6FDCDF01C0F1
:1076F00065F0000CF95302E1ABDF04D0F951020848
:1077000001E1F0DF000CFAC06EFFFA5303E0040E53
:107710000C6E02D0020E0C6E000C056A046A0EC0DC
:10772000FAF0F1DF000CFB6B240EFA6F020E010180
:10773000036FFBC005F1FAC004F1076B63C006F1EB
:10774000086F000167EC35F063C069F0636B000CF3
:10775000635301E0E8DF000CF95309E1042C02D087
:1077600030DC04D00450020801E1D7DF04D0F95125
:10777000020801E1EDDF000C0B30F76FF733F73350
:107780001F0EF7170B5251E1040100513C0B000191
:10779000F86F430E040100170001F851340827E187
:1077A00004010451800B01E0046B000138DF6D9887
:1077B0000D3C08D00101066B030E076F0001E5ECDC
:1077C00033F014D00101066B020E076F0001E5ECE7
:1077D00033F00D50FE080AE001010B6B0D6B0DC07C
:1077E0000CF1040E0E6F0001DAEC34F01DD0F851EC
:1077F00004081AE1F96B7EDF0101066B020E076FC8
:107800000001E5EC33F00D50FE080DE00D3C01D019
:107810000AD001010B6B0D6B0DC00CF1010E0E6F48
:107820000001DAEC34F000D085D00B50040817E1E9
:10783000430E04010417FF0E0D6E0001F96B8CDF7F
:107840000D3C01D00BD001010B6B0D6B0DC00CF189
:10785000020E0E6F0001DAEC34F000D06BD00BB4E6
:107860002ED00101126BF7C011F1146B080E136FCB
:1078700000013AEC33F001C0F9F001C001F0040E50
:107880000224036E01C0F9F0FA6F0101126BF7C018
:1078900011F1146B080E136F00013AEC33F001C0C4
:1078A000E9FF040E0224EA6EEF50430BFAC0EAFF30
:1078B000F9C0E9FFEF6EF7C0F9F01CDF3BD0010122
:1078C000126BF7C011F1146B080E136F00013AEC44
:1078D00033F002C0FAF001C0F9F0040EF927000EEF
:1078E000FA23F9C001F0040EFA25036EF9C0F9F08D
:1078F000FA6F0101126BF7C011F1146B080E136FD0
:1079000000013AEC33F002C0FCF001C0FBF0040EC1
:10791000FB27000EFC23FBC0E9FF040EFC25EA6EEA
:10792000EF50430BFAC0EAFFF9C0E9FFEF6EF7C072
:10793000F9F012DF000CA19A0C5201E139D0685223
:1079400037E068A404D069A402D007EC37F06DA238
:1079500001D02ED068AA04D069AA02D01EEC37F05C
:1079600068A204D069A202D024EC37F068A004D049
:1079700069A002D0C1EC37F068A804D069A802D091
:10798000D5EC37F068AC04D069AC02D0D9EC37F054
:10799000F66B68A608D069A606D06CCF0BF0BFECDA
:1079A00037F0EADE01D004D0F651F62B0308F1E2FD
:1079B000000C6491020E0101066F076F0001E5ECF7
:1079C00033F0000C64B102D0B6DFFCD76651662BF1
:1079D000A00FE96E040EEA6ED8B0EA2AEFCFF5F0F8
:1079E0006551665D01E3E5DFF5C001F0000CF7913C
:1079F000F2BEF781F29E63513E0802E23E0E636FD3
:107A00006351632B036A240FE96E000E0320EA6EB4
:107A1000F6C0EFFFF29EF7B1F28E020E0101106F79
:107A20000001B0EC34F0015201E07DDE000C635146
:107A30003E080BE2020E0101106F0001B0EC34F0C1
:107A4000015201E070DE77DFF2D7F5C0F6F0CFDF4C
:107A5000000CB8DF01C0F2F0F2C0F5F0E8DFF2513F
:107A6000390805E3300EF25D016E0FD00ED0F251F1
:107A7000600806E2F2517A0803E3F251DF0B01D00D
:107A8000F251BF0F0A0F016E00D0000CE2DF01C0FF
:107A9000F1F0DFDF01C0F0F0F051DD0804E1F1C0EA
:107AA00001F007D006D0F151100DF350F025016E12
:107AB00000D0000CF207F36B85DF01C0F4F0F45145
:107AC00008080DE1F3530AE0F307F4C0F5F0AFDF67
:107AD000200EF56FACDFF4C0F5F0A9DF16D0F4513D
:107AE0001F0813E2F4517E0810E3F251F35D0DE23A
:107AF000F351F32B036AF025E96EF1510320EA6E8E
:107B0000F4C0EFFFF4C0F5F092DFF4510D08D4E1BA
:107B1000036AF351F025E96EF1510320EA6EEF6A32
:107B2000000C640EF16FF15313E064B108D003DF71
:107B3000010E0101016F000104EC00F0F6D742DFF5
:107B4000F051015C03E1010E016E04D0F107EBD7A7
:107B5000000E016E000C6D6A696A080E6F6E94501B
:107B60003009946E0C6AABEC37F0000CF4DF000CBB
:107B7000ABEC37F06D6A140E6F6E696A6D86010E9C
:107B80000C6E000C6DB601D0F3DF0C2C08D06DBA72
:107B900006D0686A696A110E696E020E0C6E000CDE
:107BA000E5DFF0DF0C500208FCE1000C8F514008CB
:107BB00009E28F51460806E3410E8F5D0A0F016E00
:107BC0000BD00AD08F512F0807E28F51390804E3F8
:107BD000300E8F5D016E00D0000CF4DE01C08DF020
:107BE00001C08FF0E3DF01388D6FF00E8D17EADEF4
:107BF00001C08EF001C08FF0D9DF01508D25016EDC
:107C0000000CD8C001F0D7C000F0D767012A0900E6
:107C1000F5CFEEFF002EFBD7012EF9D7F86A000C46
:107C2000F250036EF29EA68EA6840F01550EA76E2B
:107C3000AA0EA76EA68200000350F2120001000CEB
:107C4000D08CA69CF6501F0B006EE00EF6160A00B4
:107C5000DBC001F0006608D0F650010F3F0B04E1D5
:107C6000A6880900DDDF0A00006607D0EECFF5FF29
:107C7000015204E00F00010603D000060B000C00C7
:107C80001F0EF6141F0AE6E1CBDF0166E3D7F86AA0
:107C9000000CD681F86A8EC0F7FF8DC0F6FFEA6A45
:107CA000930EE96ED86B400ED76FABDF44DE400E0B
:107CB000D8808F55905D06E005E3400ED8808F5543
:107CC000D56F02D090C0D5F08FC0D3F0D46BD55112
:107CD000D45D1EE2036AD351930F016E000E03229E
:107CE00001C0D7F003C0D8F0D4519125016E000E29
:107CF000922101C0E9FFEA6EEFCFD9F0D8C0EAFFC8
:107D0000D7C0E9FFD9C0EFFFD351D32BD42BDFD796
:107D100012DED36BD35101081EE3D351200DF35073
:107D20008D25D76F000E8E21D86FD351200DF350C3
:107D3000930FD96FDA6BD8B0DA2BF86AD8C0F7FF97
:107D4000D7C0F6FFDAC0EAFFE96E200EDB6F78DFFE
:107D5000F2DDD32BDFD790518F25400810E2400E83
:107D60008D27000E8E23400ED8808F55905F400ED9
:107D7000D8808F559127000E92238F6B01D0D6911A
:107D8000DADDD6B187D7000CF86AD09EEA6AE96AD4
:107D90000C6A106A636B6A6BC150C00B0F09C16E2D
:107DA000070EB46E086A040E096E0C0E0A6E7B8113
:107DB000806B7B93938E81AEC1D095908C80F0DEEA
:107DC00067B102D0B8DDFCD77F0E036E3C0E826F28
:107DD00003C083F07BA1A2D0AEDDF4DD01503A08F0
:107DE000FCE1FBDE01C07CF0F8DE8C6B01C08BF0A7
:107DF00001C08CF08B6BF1DE01508B257D6F000E86
:107E00008C217E6FDFDDDEDD01C07FF07F51310828
:107E100002E17B917DD07F5134080FE1DEDE8B6B78
:107E2000DCDE01508B25896F8A6B895302E18A530E
:107E300002E07B8301D07B936BD07F51300868E1F7
:107E40007BB366D0806B7C51805D13E2036A805106
:107E50006B0F016E000E032201C08BF003C08CF08B
:107E6000BCDE8CC0EAFF8BC0E9FF01C0EFFF802BB6
:107E7000EAD77E51640807E27E517F0804E3800E52
:107E8000F56FD5DD45D07D532DE17E532BE1825139
:107E90003F0B846F8251C00B856F83C086F08C6B63
:107EA0006B0E8B6F86C08EF085C08DF084C08FF016
:107EB000040E906F8CC092F08BC091F0EADE3BDD37
:107EC000040E846F866B856B7C5D8B6F86C08EF035
:107ED00085C08DF084C08FF0906F926B6F0E916FA4
:107EE000D8DE16D07D513F0B846F7D51C00B856F5E
:107EF0007EC086F08C6B6B0E86C08EF085C08DF0D8
:107F000084C08FF07CC090F08CC092F0916FC1DE85
:107F10007BA103D0110EF56F8ADD5CD7550EF56F8E
:107F200086DD816B813D01D008D0806B803D01D022
:107F300002D0802BFBD7812BF5D7FF00000E0A6EF5
:0A7F400000EF00F000000000030055
:020000040030CA
:0E00000024CE2E1E008781000FC00FE00F409F
:00000001FF
;PIC18F4550
;CRC=78E2  CREATED="02-Aug-10 22:36"
