:1000000014EF0DF068961200046ED8CF05F0E0CF23
:1000100006F00001E9CF0CF0EACF07F0E1CF08F0DD
:10002000E2CF09F0D9CF0AF0DACF0BF0F3CF12F01C
:10003000F4CF13F0FACF14F0F5CF15F0F6CF16F099
:10004000F7CF17F000C00EF001C00FF002C010F0A3
:1000500003C011F09DA630EF00F09EB65BEF09F0F3
:10006000A0AA36EF00F0A1BAA0EF08F00EC000F091
:100070000FC001F010C002F011C003F00CC0E9FF86
:1000800007C0EAFF078E08C0E1FF09C0E2FF0AC00F
:10009000D9FF0BC0DAFF12C0F3FF13C0F4FF14C086
:1000A000FAFF15C0F5FF16C0F6FF17C0F7FF0450A2
:1000B00006C0E0FF05C0D8FF1000F76ACA0FF66E51
:1000C000000EF7220900F5501200000302FFFFFFA7
:1000D000FFFFFFFFFFFFFFFFFFFFF76AEA0FF66E6C
:1000E000000EF7220900F550120000FF02FFFFFF8B
:1000F000FFFFFFFFFFFFFFFFFFFFF76A0A0FF66E2C
:10010000010EF7220900F5501200400008004000DF
:1001100000000000000000000000000000000000DF
:1001200000000000000000000000F76A3A0FF66EC1
:10013000010EF7220900F5501200400000004000B7
:1001400000000000000000000000000000000000AF
:1001500000000000000000000000F76A6A0FF66E61
:10016000010EF7220900F5501200090243000201B6
:100170000080320904000001020201000524001081
:1001800001042402020524060001052401000107E0
:100190000581030800FA09040100020A00000007B3
:1001A0000502024000010705820240000100F76AD3
:1001B000BE0FF66E010EF7220900F5501200020084
:1001C000F76AD00FF66E010EF7220900F550120003
:1001D00012171B20FFFFFFFFF76AE80FF66E010EF4
:1001E000F7220900F5501200120110010200004030
:1001F00061043300000101020001F76A0A0FF66E84
:10020000020EF7220900F550120004030904080346
:1002100043004300530018035300450052004900B7
:1002200041004C002000440045004D004F006D92FD
:10023000699468A402D06894FCD7ACEF08F0400E33
:100240000401016F040E036F180E026F880E006F19
:10025000046B040E076F580E066F0001120070A0A9
:1002600002D0EDDF7090689AB5EF08F06A6A689284
:10027000BBEF08F00101659164BF6581649F645123
:10028000100803E2000E016E1BD065A10DD0036AB9
:100290006451000112DFFF0802E1000E01D0010EDF
:1002A000016E01010DD00CD0036A6451000115DF0D
:1002B000FF0802E1000E01D0010E016E010100D025
:1002C0000001120001016C516E03F3CF01F0F4CF75
:1002D00000F06F03F35000266D516E03F3500020C1
:1002E000026E00011200036A01016351700FE96E92
:1002F0000F0E0320EA6EEF6A63C164F10001BADFFA
:10030000015228E001016D6B63C16CF16F6B080E47
:100310006E6F0001D7DF010101C0E9FF040E022466
:10032000EA6EEF6A6D6B63C16CF16F6B080E6E6FF6
:100330000001C8DF02C065F101C064F1040E0101D3
:100340006427000E652364C1E9FF040E6525EA6E8B
:10035000EF6A00011200010E0101626F62510F0885
:1003600007E362C163F10001BEDF0101622BF6D732
:10037000000112002C6A2B6A250E2A6E800E296E4F
:100380002D6A2E6A080E2F6E7E6B7D91316A306A5F
:10039000796B7A91DDEF01F00101586B585101083A
:1003A0000AE3036A5851270FE96E000E0320EA6E34
:1003B000EF6A582BF3D70001DDD71B6A010E1C6EC4
:1003C0001A6AECEF01F06A6A686A9F0E6B6E3D0E66
:1003D000696E6E6AC0DFE0D7160E706E68A602D036
:1003E00011DEFCD76D982BDF030E226EC1EF08F0F3
:1003F000698468986D82C7EF08F0689CCDEF08F0BB
:100400005DC123F012002368120001015B6B2652CC
:100410002CE05B513F0829E31D50000A000105E074
:10042000020A09E0010A0DE012D0036A255095DEA8
:10043000E8CF5CF10CD0036A2550DFDEE8CF5CF139
:1004400006D0036A2550C8DEE8CF5CF100D0252A2B
:10045000260601015B515B2B580FE96E040EEA6E14
:10046000D8B0EA2A5CC1EFFFD2D7265204E15B5133
:10047000400801E01A6A5BC15DF10001C1DF1200B2
:10048000256A1D6A04011B51010A000107E0030AE5
:100490000AE0010A0BE0220A1BE02BD0120E266EA6
:1004A000030E1D6E28D0430E266E25D0020E1D6E43
:1004B000036A04011A511E0FE96E000E0320EA6E52
:1004C000EFCF25F0036A2550000197DE266E13D08A
:1004D000036A04011A51000173DE256E253C01D028
:1004E00006D0036A255039DE266E05D002D08BDF98
:1004F0000ED089DF0CD004011F5305E126501E5D8C
:1005000002E21EC426F0010E1A6E00017EDFD5EF56
:1005100003F001015A5306E1040E226E00011BDFB5
:10052000E7D00101050E226E040E5D6F980E5C6F20
:10053000010E5B6F5B510F08D8A0DAD05BC163F18D
:100540000001D1DE01015E6B036A5B510001C5DD74
:10055000FF0865E0040E01015E6FD8905B35036A09
:100560000001E3DD0900F5CF03F001015F6F03C077
:1005700060F16D6B5BC16CF16F6B080E6E6F00010B
:10058000A1DE01C062F1010E01010124016E000E25
:100590000220036E01C0E9FF040E0324EA6E5FC16E
:1005A000EFFF6D6B5BC16CF16F6B080E6E6F00013E
:1005B00089DE01C062F1020E01010124016E000E0C
:1005C0000220036E01C0E9FF040E0324EA6E5DC140
:1005D000ECFFED525CC1EFFFD8905B35036A000180
:1005E000A4DD0900F5CF03F001015C2703505D2372
:1005F000880E616F60B1618160B361836D6B5BC1B7
:100600006CF16F6B080E6E6F00015CDE010101C0C2
:10061000E9FF040E0224EA6E61C1EFFF0001036AE4
:1006200001015B51000149DDFF0847E001015E83E4
:100630006D6B5BC16CF16F6B080E6E6F000142DE7B
:1006400002C063F101C062F1040E01016227000ED5
:100650006323020E6225016E000E6321036E01C04A
:10066000E9FF040E0324EA6E5DC1ECFFED525CC1AC
:10067000EFFFD8905B35036A00013FDD0900F5CF3D
:1006800003F001015C2703505D236D6B5BC16CF1CE
:100690006F6B080E6E6F000115DE02C063F101C0C2
:1006A00062F1040E01016227000E632362C1E9FFBB
:1006B000040E6325EA6E400EEF6E01015E510608DE
:1006C00002E10E0E5E6F036A5B510001F6DC010869
:1006D00003E001015E890001036A01015B51700FB3
:1006E000E96E0F0E0320EA6E5EC1EFFF5B2B22D78F
:1006F0000001CDEF03F004011951000A00010DE0E3
:10070000010A15E0020A20E0060A2AE0030A31E0A5
:100710000E0A31E0010A37E046D01CC058F404014B
:10072000596B020E01015D6F00016ADE3ED00401CB
:100730001A2D07D0010E1C1601015D6B000160DE51
:1007400002D0000160DE31D004011A2D06D01C82D7
:1007500001015D6B000154DE02D0000154DE25D0A2
:10076000020E1A6E1AC424F001015D6B000148DE0E
:100770001CD086D61AD01BC058F4010E01015D6F43
:1007800000013EDE12D004011A5101080AE31AC426
:100790001BF01AC45AF10001BCD601015D6B0001C7
:1007A0002FDE000102D02FDE00D06EEF05F01BC05F
:1007B0005AF104011951000A000105E00A0A0CE08F
:1007C000010A2BE03FD00401586B596B020E010166
:1007D0005D6F000115DE38D001015A531BE0010E98
:1007E0005A5D036A0001E3DC016E04011C5DD8A0C0
:1007F00002D001010FD0036A1C51270FE96E000ED1
:100800000320EA6EEFCF58F4010E01015D6F000185
:10081000F7DD02D00001F7DD17D001015A530FE0D8
:10082000036A04011C51270FE96E000E0320EA6ED3
:100830001AC4EFFF01015D6B0001E2DD02D000018F
:10084000E2DD02D0E0DD00D06EEF05F001015B914A
:100850005ABF5B815A9F5BA119D06D6B5AC16CF175
:100860006F6B080E6E6F00012DDD02C05DF101C0DF
:100870005CF1040E01015C27000E5D235CC1E9FF01
:10088000040E5D25EA6E880EEF6E0FD06D6B5AC1B7
:100890006CF16F6B080E6E6F000114DD010101C079
:1008A000E9FF040E0224EA6EEF6A0001D8EF04F0BB
:1008B00001015B915ABF5B815A9F5BA119D06D6B9F
:1008C0005AC16CF16F6B080E6E6F0001FBDC02C049
:1008D0005DF101C05CF1040E01015C27000E5D2397
:1008E0005CC1E9FF040E5D25EA6E840EEF6E10D048
:1008F0006D6B5AC16CF16F6B080E6E6F0001E2DC1C
:10090000010101C0E9FF040E0224EA6E840EEF6EBD
:100910000001E0EF04F001015B915ABF5B815A9F37
:100920005BA119D06D6B5AC16CF16F6B080E6E6FC5
:100930000001C8DC02C05EF101C05DF1040E0101DE
:100940005D27000E5E235DC1E9FF040E5E25EA6EA1
:10095000EFCF5CF110D06D6B5AC16CF16F6B080E6C
:100960006E6F0001AFDC010101C0E9FF040E02243B
:10097000EA6EEFCF5CF15CAF02D05CB502D0000E46
:1009800001D0010E016E0001ECEF04F01CC464F113
:1009900071DC01522EE004011951010A000105E049
:1009A000020A0BE0030A11E022D01CC45AF14ED710
:1009B00001015D6B000124DD1CD01CC45AF178D705
:1009C00001015D6B00011CDD14D00401586B596BF3
:1009D0001CC45AF100019FD7015203E0010E04012B
:1009E000586F020E01015D6F00010ADD02D00BDDC0
:1009F00000D06EEF05F0FE0E236E120004011C2DD8
:100A000001D002D01C534FE11951000A00010BE044
:100A1000010A0DE0210A1CE0010A1FE0030A30E090
:100A2000010A35E03DD0010E806FE5DF3BD0040EBA
:100A3000EA6E580EE96EE26A320EE16E080E016E41
:100A4000E6CFEEFF012EFCD71EC45DF1D9DC2AD023
:100A5000020E806F7D81CFDF25D0040EEA6E580E26
:100A6000E96EE26A290EE16E070E016EE6CFEEFF37
:100A7000012EFCD7070E01015D6F0001C1DC12D011
:100A80001AC47EF001015D6B0001BADC0BD01AC400
:100A900031F01BC430F001015D6B0001B1DC02D00C
:100AA000B2DC00D0040100016EEF05F01A6A040107
:100AB00018517F0B000A000107E0010A07E0030A52
:100AC00007E0230A07E008D016D608D070D606D073
:100AD0005DD704D093D702D096DC00D0D6EF07F0D4
:100AE00001016D6B5BC16CF16F6B080E6E6F0001E5
:100AF00062EC01F0010101C0E9FF040E0224EA6E7C
:100B0000EFCF5DF15C51020806E15DAD02D05C6B98
:100B100002D0010E5C6F5C5103081CE1840E5D6F16
:100B20006D6B5BC16CF16F6B080E6E6F000162EC58
:100B300001F002C061F101C060F1040E0101602703
:100B4000000E612360C1E9FF040E6125EA6E840E88
:100B5000EF6E07D05C2D03D0C80E5D6F02D0880EFB
:100B60005D6FD8905B35036A000195EC00F00900D9
:100B7000F5CF03F001015E6F03C05FF16D6B5BC1E8
:100B80006CF16F6B080E6E6F000162EC01F001C03A
:100B900060F1010E01010124016E000E0220036EBE
:100BA00001C0E9FF040E0324EA6E5EC1EFFF5FB1EE
:100BB0005D815FB35D836D6B5BC16CF16F6B080E24
:100BC0006E6F000162EC01F0010101C0E9FF040E4B
:100BD0000224EA6E5DC1EFFF00011200036A010109
:100BE0006B51700FE96E0F0E0320EA6EEF521BE09F
:100BF0006D6B6BC16CF16F6B080E6E6F000162EC78
:100C000001F002C06DF101C06CF1040E01016C270E
:100C1000000E6D236CC1E9FF040E6D25EA6EEFCF67
:100C20006EF16EAF02D0000E01D0010E016E000118
:100C3000120066C16BF1D2DF0152D8B486D0010137
:100C40006D6B66C16CF16F6B080E6E6F000162EC2C
:100C500001F002C06CF101C06BF1040E01016B27C1
:100C6000000E6C23010E6B25016E000E6C21036ECD
:100C700001C0E9FF040E0324EA6E67C1EFFF69516A
:100C8000020820E16D6B66C16CF16F6B080E6E6F30
:100C9000000162EC01F002C06CF101C06BF1040EC6
:100CA00001016B27000E6C236BC1E9FF040E6C255C
:100CB000EA6EEFCF6AF16AAD02D0696B02D0010E25
:100CC000696F1AD06951040817E16D6B66C16CF148
:100CD0006F6B080E6E6F000162EC01F0010101C044
:100CE000E9FF040E0224EA6EEFCF6AF16AAD03D089
:100CF000010E696F01D0696B692D03D0C80E6A6F50
:100D000002D0880E6A6F68B16A8168B36A836D6BBE
:100D100066C16CF16F6B080E6E6F000162EC01F042
:100D200002C06CF101C06BF1040E01016B27000ED3
:100D30006C236BC1E9FF040E6C25EA6E6AC1EFFFFC
:100D4000010E016E05D000D00001000E016E010100
:100D5000000112008051010A03E0030A15E028D0C7
:100D6000EA6A320EE96E040EE26E180EE16E080EAB
:100D7000016EE6CFEEFF012EFCD701015D6B000195
:100D800000EC02F0806B16D0EA6A290EE96E040EC0
:100D9000E26E180EE16E070E016EE6CFEEFF012E39
:100DA000FCD7806B01015D6B000100EC02F002D00A
:100DB000806B00D01AEF07F001016D6B5BC16CF125
:100DC0006F6B080E6E6F000162EC01F002C05DF106
:100DD00001C05CF1010E01010124016E000E022030
:100DE000036E01C0E9FF040E0324EA6E036AEFCF2D
:100DF00001F003C002F000010EEF07F07A91020E3D
:100E000001015B6F5C6F00016BDE13EF07F07A810D
:100E10007C6B020E01015B6F0001CED701C07BF03D
:100E20007B5301E1EBD721EF07F001015A5304E1B5
:100E3000000190D706D001015A51020803E10001D8
:100E4000E6D70101000112005BC16EFF01015B5397
:100E500003E0040E226E02D0020E226E000136EF75
:100E600007F01B6A1A6A24C05BF1EED7B0EF07F0F7
:100E70005EC16BF1B3DE01524AE001016D6B5EC1F0
:100E80006CF16F6B080E6E6F000162EC01F002C036
:100E900067F101C066F1040E01016627000E6723A9
:100EA000020E6625016E000E6721036E01C0E9FF88
:100EB000040E0324EA6EECCF03F0ED52EFCF64F1A1
:100EC00003C065F165C1EAFF64C1E9FF60C1E2FFEB
:100ED0005FC1E1FF62C102F061C101F0015202E0B5
:100EE000022A02D0025206E0E6CFEEFF012EFCD726
:100EF000022EFAD75EC166F162C168F161C167F185
:100F000063C169F1000195DE015003D000D0000EED
:100F1000016E98EF07F0020E01015E6F606B3A0EF2
:100F20005F6F626B79C061F1020E636F0001A0D741
:100F300079C07FF0796B1200795301E0ECDFB7EFF5
:100F400007F001015A530EE11A2C05D0000105ECFF
:100F500002F006D001011A50020803E1000181D716
:100F6000010106D05A51020803E10001E5D7010151
:100F70000001120021300101586F583358331F0E01
:100F8000581721524FE1040100513C0B0101596FE8
:100F9000430E0401001701015951340825E10401F1
:100FA0000451800B01E0046B000180D56D98233C57
:100FB00007D001015B6B030E5C6F000191DD12D065
:100FC00001015B6B020E5C6F00018ADD2350FE089D
:100FD00009E00101666B686B23C067F1040E696F5D
:100FE000000127DE1DD00101595104081AE15A6B96
:100FF00000011BDF01015B6B020E5C6F000170DD05
:101000002350FE080CE0233C01D009D00101666B9F
:10101000686B23C067F1010E696F00010ADE00D022
:1010200001018BD02150040817E1430E040104177D
:10103000236801015A6B000184DF233C01D00AD0F0
:101040000101666B686B23C067F1020E696F0001D6
:10105000F0DD00D071D0010121B432D06D6B58C1E8
:101060006CF16F6B080E6E6F000162EC01F002C054
:101070005BF101C05AF1010101C001F0040E02242C
:10108000036E01C05CF15D6F6D6B58C16CF16F6BED
:10109000080E6E6F000162EC01F0010101C0E9FF72
:1010A000040E0224EA6EEF50430B5DC1EAFF5CC1FF
:1010B000E9FFEF6E58C15AF10001B7DE3DD00101E2
:1010C0006D6B58C16CF16F6B080E6E6F000162ECB6
:1010D00001F002C05BF101C05AF1040E01015A2770
:1010E000000E5B235AC101F0040E5B25036E5AC14A
:1010F0005CF15D6F6D6B58C16CF16F6B080E6E6FBC
:10110000000162EC01F002C05FF101C05EF1040E6B
:1011100001015E27000E5F235EC1E9FF040E5F251B
:10112000EA6EEF50430B5DC1EAFF5CC1E9FFEF6E71
:1011300058C15AF1000105DF01010001D9EF08F0A3
:10114000A19A225201E13ED068523CE068A404D04A
:1011500069A402D017EF01F06DA201D033D068AAC4
:1011600004D069AA02D02FEF01F068A204D069A2CE
:1011700002D036EF01F068A004D069A002D0E3EFFE
:1011800001F068A804D069A802D0F8EF01F068ACBB
:1011900004D069AC02D0FDEF01F00101576B68A6E5
:1011A0000AD069A608D06CCF21F0000102EC00F053
:1011B000E1D602D0010105D001015751572B030898
:1011C000EEE2000136EF00F001015F91F2BE5F81B7
:1011D000F29E000179513E0802E23E0E796F79518C
:1011E000792B036A3A0FE96E000E0320EA6E5EC1A6
:1011F000EFFFF29E01015FB1F28E000103EF09F0F3
:101200005DC15EF1E1D7020E01016B6F0001E6DC0A
:10121000015201E080DE14EF09F079513E0801E24D
:10122000FCD75CC15DF1ECD712000900F6CF5AF192
:10123000F7CF5BF1F5CF5CF1F0DF5AC1F6FF5BC190
:10124000F7FF0101592F01D002D00001EED70001B4
:10125000120001015ABF11D00F0E006E593900164D
:101260000A0E005C03E2300E002602D05A5100261E
:1012700000C05CF10001D1DF01010F0E59170A0E09
:10128000595D02E2300E02D05A9F5A51592759C176
:101290005CF10001C2DF73EF09F0C69CC586C5B6DC
:1012A000FED700B0C59A00A0C58AC588C5B8FED7CC
:1012B000C9CF01F01200C7BA03D0CA6BC7B4CA8F36
:1012C000CA51CA2B0101576FAC0EF66E130EF76EA2
:1012D0000E0E596F0001A9DF57C159F1570E0101D8
:1012E0005A6F0001B6D70A0E01015C6F000195DF4D
:1012F000010157530EE1010E006E0001CEDFC92D32
:1013000001D003D0010EC96F4ED0020EC96F4BD071
:10131000010157517F0844E3010E006E0001BDDF5B
:1013200001C058F1C951020A03E0010A0EE036D0AB
:1013300001015851030A000101E003D0030EC96FF7
:1013400003D0010EC96F00D029D00101585320E00D
:10135000BE0EF66E130EF76E050E596F000165DFB7
:1013600058C15CF15ADF0A0E01015C6F000155DFC4
:10137000036AC751870FE96E000E0320EA6E58C159
:10138000EFFFC72B3F0EC717030EC96F06D0010131
:10139000010E0001C86FC76BC96F00D004D00101F6
:1013A000010E0001C96F9E9636EF00F06932635F4F
:1013B0006973725F73746174652025780A00524501
:1013C00041442025630A0000C69E9E9651C1C9FF74
:1013D000020EC6BE05D09EA6FED7000EC5BC010EED
:1013E000016E1200149A149C149E148A1200F29C2E
:1013F000F29EF2BEFDD7C580C5B0FED7B00E01018A
:10140000516F0001E1DF015206E0ECDFC00EF21285
:10141000000E016E47D00101516B0001D5DFC5827E
:10142000C5B2FED7B10E0101516F0001CDDF006AD8
:10143000196AF2BE198EF29E30DF19BEF28E01C01B
:1014400049F1C584C5B4FED70101499F130E006E52
:10145000002EFED700D0C580C5B0FED7B00E516FAC
:101460000001B2DF0101516B0001AEDF49C151F152
:10147000ABDFC582C5B2FED7B00E0101516F0001CE
:10148000A3DF070E0101516F00019EDF800E0101F5
:10149000516F000199DFC584C5B4FED7C00EF212AA
:1014A000010E016E6AEF0CF0010EEA6E4A0EE96E53
:1014B000EF500EE00F0E016E006A002EFED7012ED7
:1014C000FBD78F0E006E002EFED70000EF2EF2D756
:1014D000120054C155F1D89001015533780E5517BB
:1014E0005531006E00323F0E001600505525566FE4
:1014F00054510F0B5625016E00011200C580C5B076
:10150000FED7D00E0101516F00015EDF0101516B6A
:1015100000015ADFC582C5B2FED7D10E0101516F5D
:10152000000152DF4EC103F001014DC14FF14EC128
:1015300050F1010E006E196AF2BE198EF29E000182
:10154000ACDE19BEF28E01507F0B0101516F546F5A
:101550000001BFDF50C1EAFF4FC1E9FF01C0EFFF4B
:101560004CC103F001014BC14FF14CC150F1010ED0
:10157000006E196AF2BE198EF29E00018EDE19BE4F
:10158000F28E01507F0B0101516F546F0001A1DFFA
:1015900050C1EAFF4FC1E9FF01C0EFFF4AC103F0AC
:1015A000010149C14FF14AC150F1006A196AF2BE06
:1015B000198EF29E000171DE19BEF28E01503F0BB2
:1015C0000101516F546F000184DF50C1EAFF4FC128
:1015D000E9FF01C0EFFFC584C5B4FED77FEF0CF073
:1015E000C580C5B0FED7D00E0101516F0001ECDE01
:1015F000030E0101516F0001E7DEC582C5B2FED7BF
:10160000D10E0101516F0001DFDE50C103F0010175
:101610004FC151F150C152F1010E006E196AF2BE74
:10162000198EF29E000139DE19BEF28E01507F0B39
:101630000101536F546F00014CDF52C1EAFF51C1E9
:10164000E9FF01C0EFFF4AC103F0010149C151F1B7
:101650004AC152F1010E006E196AF2BE198EF29E55
:1016600000011BDE19BEF28E01503F0B0101536FCA
:10167000546F00012EDF52C1EAFF51C1E9FF01C0E2
:10168000EFFF4CC103F001014BC151F14CC152F1CC
:10169000010E006E196AF2BE198EF29E0001FDDD88
:1016A00019BEF28E01501F0B0101536F546F0001E0
:1016B00010DF52C1EAFF51C1E9FF01C0EFFF4EC187
:1016C00003F001014DC151F14EC152F1006A196A96
:1016D000F2BE198EF29E0001E0DD19BEF28E01C04D
:1016E00053F101C054F1F5DE52C1EAFF51C1E9FFE7
:1016F00001C0EFFFC584C5B4FED78EEF0CF0CCC09F
:10170000EAFFCBC0E9FF01014BC1EFFFE92AD8B4E2
:10171000EA2AEF6A0001CB2BD8B4CC2B12000101CE
:101720004C51016A4B5D03E24BC100F00CD0006AE2
:10173000080E4D6F4B3700364C51005CD8B0006E30
:1017400001364D2FF7D700011200015049C14BF16E
:10175000640E01014C6F0001E2DF00C049F101504D
:10176000300E08E101014AA30FD04AB70DD04AB9A3
:10177000200E04D001014A974A994A81012601C0EE
:101780004BF10001BCDF010149C14BF10A0E4C6F66
:101790000001C5DF00C049F10150300E08E1010130
:1017A0004AB70AD04AA108D04AB9200E0001012642
:1017B00001C04BF1A4DF0101300E492749C14BF1B3
:1017C00000019DDF1200C580C5B0FED7B60E010135
:1017D000516F0001F9DD030E0101516F0001F4DDCD
:1017E00001014B6B036A4B514925E96E4A510320B5
:1017F000EA6EEF5210E0036A4B514925E96E4A51F7
:101800000320EA6EEFCF4CF14CC151F10001DCDD59
:1018100001014B2BE7D7516B0001D6DDC584C5B460
:10182000FED703EF0DF0F29CF29EF2BEFDD7C5800D
:10183000C5B0FED7B00E0101516F0001C5DD0152E8
:1018400006E0D0DDC00EF212000E016EEAD0020EEC
:101850000101516F0001B8DDC582C5B2FED7B10EDE
:101860000101516F0001B0DD0101466B010E006EF8
:10187000196AF2BE198EF29E00010FDD19BEF28EBA
:101880000101476B486B4851130817E3036A48513D
:10189000DE0FE96E000E0320EA6E010E006E196A7B
:1018A000F2BE198EF29E0001F8DC19BEF28E01C064
:1018B000EFFF010E01014827E6D7006A196AF2BE60
:1018C000198EF29E0001E9DC19BEF28EC584C5B402
:1018D000FED78DD5040E0101496FFA0E4A6F000143
:1018E000E3DD0101492FF9D74A6BD70E496F4C6BE5
:1018F000D80E4B6F4E6BD90E4D6F0001FFD5010115
:101900004A6BDC0E496F4C6BDB0E4B6F4E6BDA0E85
:101910004D6F506BDD0E4F6F000162D6010ECC6F24
:101920001E0ECB6F260E01014B6F0001E8DE440E48
:1019300001014B6F0001E3DE3D0E01014B6F000121
:10194000DEDEDAC049F1010E01014A6F0001FDDE61
:10195000DBC049F1010E01014A6F0001F6DEDCC077
:1019600049F1010E01014A6F0001EFDE5F0E010136
:101970004B6F0001C4DED7C049F1010E01014A6F6F
:101980000001E3DED8C049F1010E01014A6F0001F8
:10199000DCDE01012D6B260E0001F26F4D0EF36FA0
:1019A0003D0EF46F310EF56F0101486B48510E0882
:1019B0001BE3180E4825036ADE0F016E000E03229A
:1019C00003C04AF1036A48511E0FE96E010E03205D
:1019D000EA6EEFCF4BF14AC1EAFF01C0E9FF4BC10C
:1019E000EFFF010E4827E2D7056B280E496FFA0E6C
:1019F0004A6F000159DD0101492FF9D74A6BDE0E0C
:101A0000496F0001E0D6280E0101496FFA0E4A6FB6
:101A100000014ADD0101492FF9D7C00EF212010E73
:101A2000016E000184EF0DF0F86AD09E078EEA6A1D
:101A3000E96A93829380770EC86E280EC66EC78EB1
:101A4000C79C226A266A796B806BB886E10EAF6EFE
:101A5000040EB06EA60EAC6E900EAB6EC76BC86B6C
:101A6000C96B030ECA6FCC6BCB6BC150C00B0F0997
:101A7000C16E070EB46E1E6A040E1F6E0C0E206E31
:101A8000816B826B876B886B896B8A6B8B6B8C6BC2
:101A90008D6B8E6B8F6B906B916B926B936B946B6A
:101AA000956B966B976B986B996B9A6B9B6B9C6B1A
:101AB0009D6B9E6B9F6BA06BA16BA26BA36BA46BCA
:101AC000A56BA66BA76BA86BA96BAA6BAB6BAC6B7A
:101AD000AD6BAE6BAF6BB06BB16BB26BB36BB46B2A
:101AE000B56BB66BB76BB86BB96BBA6BBB6BBC6BDA
:101AF000BD6BBE6BBF6BC06BC16BC26BC36BC46B8A
:101B0000C56BC66BCD6B8FD6040ED76FFA0E010175
:0E1B10004A6F0001C9DCD72FF9D7F5D70300C3
:020000040030CA
:0E00000024CE391E0087A1000FC00FE00F4074
:00000001FF
;PIC18F4550
;CRC=5B50  CREATED="26-Aug-12 12:26"
