:1000000001308A0049290000FF00030E8301A1008E
:100010000A08A0008A010408A2007708A300780853
:10002000A4007908A5007A08A600831383128C30F7
:100030008400801D1D288C192E2822088400230886
:10004000F7002408F8002508F9002608FA0020081F
:100050008A00210E8300FF0E7F0E09008A110A120A
:100060005728412AAB245029BF060000412AAB2162
:100070004F28D31F0D00412AAB21CD23C61EB10648
:100080000001412AAB21D321CC253D180D00412A86
:10009000AB21D3280D00412AAB21CD23D31EA215BD
:1000A000361B3818B41C381BB81937110D008316CD
:1000B000941A62288312EE018316141D622883129B
:1000C000EE17831683126E08EE0AF400F408031D7F
:1000D0007B2814138C1D6A28130814166C0B7128C6
:1000E000782894121413941394160130EC00B72856
:1000F0000230EC00B72874087F3C031CB5281413A9
:100100008C1D802813081416F500ED016C08023AC6
:1001100003198E28043A0319A028B4287508013A57
:1001200003199628023A031999289C280130EC00FB
:100130009F280630EC009F280130EC009F28B4284F
:10014000F5080319AF282A306A078400831375085D
:100150008000EA0A3F30EA050630EC00B32801309F
:10016000EB00EA01EC00B428B7280130EC008C1158
:100170008A110A121D287008F2006F08F100720837
:10018000FA007108840083137A1883178008031912
:10019000CD28F10A0319F20ABF286F087102F7008F
:1001A0007208FA007008031C700FFA027708F80052
:1001B0008A110A12F9290B08EF008B138316031713
:1001C0008C170C140000000083120C087F390319EF
:1001D0001829F0000D08F1000F08F2007008031351
:1001E0000C1EF0289900710803178D0072088F000B
:1001F00083168C170C140000000083120C0D0E0DDA
:100200007F3903191829F0000D08F1000F08F200DA
:10021000700803130C1E0A299900710803178D003A
:1002200072088F008D0A03198F0A0313DE28031743
:100230000313EF1B8B1708006F3084008313000833
:1002400003192F290630F800F701F70B2529F80BC1
:1002500024297B30F700F70B2B29800B222908007B
:10026000800803194629F0010408EF007010831B71
:10027000701400080C1E3A2999006F08840083133B
:1002800070188317840A0319850A30298A110A1203
:100290006C2A840183131F308305FF30A700A71544
:1002A00027088316870083122716270883168700DE
:1002B000B63093003630831294008316111403175E
:1002C000871508300313990002309A00A630980071
:1002D000903083129800EA01EB010130EC00ED014F
:1002E0000330EE00831603170908C0398900031391
:1002F0001F129F12003003178800831287018801A4
:1003000089010313A801A901AA01AB01AC01AD0148
:10031000AE01AF01B001B101B201B301B401B50149
:10032000B601B701B801B901BA01BB01BC01BD01F9
:10033000BE01BF01C001C101C201C301C401C501A9
:10034000C601C701C801C901CA01CB01CC01CD0159
:10035000CE01CF01D001D101D201D301D401D50109
:10036000D601D701D801D901DA01DB01DC01DD01B9
:10037000DE01DF01E001E101E201E301E401E50169
:10038000E601E701E801E901831603170908C0390E
:10039000890003131F129F12003003178800831275
:1003A00003131F139F1383169F1383121F148316A7
:1003B0000108C73908388100831290010030F80025
:1003C0009200003083169200F030831297050317D5
:1003D000870188018901831603138C15C0308312AD
:1003E0008B04EB080319782AEB01F0012A30EF00A7
:1003F000BB28F8080319782A313003178D00003024
:100400008F000313DB200D300C1E042A99000A30E4
:100410000C1E082A9900C830EF001C213630031743
:100420008D0000308F000313DB200D300C1E162AC8
:1004300099000A300C1E1A2A9900C830EF001C21BE
:100440003B3003178D0000308F000313DB200D308D
:100450000C1E282A99000A300C1E2C2A9900C8303C
:10046000EF001C21413003178D0000308F00031373
:10047000DB200D300C1E3A2A99000A300C1E3E2A51
:100480009900C830EF001C21473003178D00003061
:100490008F000313DB200D300C1E4C2A99000A300C
:1004A0000C1E502A9900C830EF001C214B30031756
:1004B0008D0000308F000313DB200D300C1E5E2AF0
:1004C00099000A300C1E622A9900C830EF001C21E6
:1004D0002A308400831330290D300C1E6D2A9900B8
:1004E000C830EF001C211A300C1E742A9900AA0192
:0C04F0005330F700F70B7A2AF129630063
:04400E00F22CFF3F52
:00000001FF
;PIC16F886
;CRC=B40F  CREATED="24-Aug-12 19:31"
