:1000000010308A0000280000FF00030E8301A100C9
:100010000A08A0008A010408A2007708A300780853
:10002000A4007908A5007A08A600831383128C30F7
:100030008400001C1D280C1834288C308400801D7E
:1000400023288C193728220884002308F700240865
:10005000F8002508F9002608FA0020088A00210E79
:100060008300FF0E7F0E09008A110A123A288A11B6
:100070000A123A2C3414D2308F00F0308E000C105B
:100080008A110A1223284539F2377210A312751605
:10009000A0127500130803173808031393001416F1
:1000A0008C11831614185228F8018312141AF80AB6
:1000B00008000317370803191F29C3003B08031959
:1000C0001F29C302031C69287F30C30703181F2997
:1000D0006F288130C302031C1F2903191F294308FD
:1000E000F700F801F901FA01C2013808C100C1178F
:1000F0003908C0003A08BF001930C3003E08BF02EB
:10010000031892280130C00203189228C102031874
:100110009228C20203189228C20AC10AC00A3E08E5
:10012000BF07C4283D08C0020318AD280130C10232
:100130000318AD28C2020318AD28C20AC10A3D083F
:10014000C0073E08BF07031CC428C00A031DC428FB
:10015000C10A031DC428C20AC4283C088038C10251
:100160000318C3280130C2020318C328C20A3C087E
:100170008038C1073D08C007031CA128C10A031D20
:10018000A128C20AA1287A14C30BC728D2280310B9
:10019000BF0DC00DC10DC20D0310FA0DF90DF80D04
:1001A000C40D7E28441CDA280310F80CF90CFA0C54
:1001B000C40CDD28F70303191F29C41B06290310EB
:1001C000BF0DC00DC10DC20D3E08BF020318F228BD
:1001D0000130C0020318F228C1020318F228C2023B
:1001E000031C15293D08C0020318FD280130C10277
:1001F0000318FD28C202031C15293C088038C102DF
:10020000031806290130C202031C1529FA0A031D2E
:100210001529F90A031D1529F80A031D1529F70ADE
:1002200003191F29F80CF90CFA0C3808C3003C0814
:10023000C306C31F1D29F8172329F8132329F70123
:10024000F801F901FA01031308008030831C2B29FF
:100250000317BC0603130317C101C2013808C0000D
:100260003C08C00637080319192ABF00F7003B08ED
:100270000319222ABF020319BE29031C7C293C084A
:10028000C500C5173D08C4003E08C300C2010310E5
:10029000C50CC40CC30CC20CBF0B4629C01F53298C
:1002A0004114362A41103F1041163A30840083171A
:1002B0004B2A4112C01B66293F1C7129C50CC40C76
:1002C000C30CC20CF70A0319312A7129C51B742902
:1002D0000310C20DC30DC40DC50DF7030319312A58
:1002E00066294117DE2941133808C000C01F7A294A
:1002F000C5172A2AC5132A2A3B08BF00F70037086A
:10030000BF023808C500C5173908C4003A08C30041
:10031000C2010310C50CC40CC30CC20CBF0B88294E
:10032000C01F9529C114362AC1103F10C1163E3096
:10033000840083174B2AC112C01BA8293F1CB32974
:10034000C50CC40CC30CC20CF70A0319312AB3291B
:10035000C51BB6290310C20DC30DC40DC50DF7038F
:100360000319312AA829C117DE29C1133C08C0008E
:10037000C01FBC29C5172A2AC5132A2A3C08C50054
:10038000C5173D08C4003E08C300C01FCB29C513D4
:100390004115362A4111C2013F103A3084008317BB
:1003A0004B2AC01BF4293808C0003F1CDE29C50CAD
:1003B000C40CC30CC20CF70A0319312AC21FEF295F
:1003C000C30A031DEF29C40A031DEF29C50A031D33
:1003D000EF29C50CC40CC30CF70A0319312A411BC1
:1003E0007329C11BB529132A8030C506C51FFC29F6
:1003F000362A3C08C000092A3808C000C508031D79
:10040000092AC408031D092AC308031D092AF70184
:100410002A2AC51B132A0310C20DC30DC40DC50D16
:10042000F70B092A312AC01F172AC5172A2AC51314
:100430002A2A3B08F7003C08C5003D08C4003E08D6
:10044000C3002A2A3708F7003808C5003908C40055
:100450003A08C3004508F8004408F9004308FA00C8
:10046000692AF701F801F901FA01692AC201C309F1
:10047000C409C509C209C20A031D442AC30A031DCF
:10048000442AC40A0319C50A41185229C1189429DB
:100490004119CA29F9290008C307031C552AC40AAF
:1004A000031D552AC50A03193F1484030008C40715
:1004B000031C5D2AC50A03193F1484030008801F2A
:1004C000803AC50703183F14411A5929C11A9B29BC
:1004D000D1290313080083162408840083132518E8
:1004E00083178312031744088000840A800183164F
:1004F0000313A40A0319A50A83120800031744086A
:100500000319EF2ACC0048080319EF2ACC07031877
:10051000902A7F30CC02031CEF2A0319EF2A942A79
:100520008130CC070318EF2A4C08F700F801F901D5
:10053000FA014508D000D0174608CF004708CE0082
:100540001830CC00CD014E1CBD2A4B08FA07031C05
:10055000AF2AF90A031DAF2AF80A0319CD174A0872
:10056000F907031CB62AF80A0319CD174908C60073
:10057000C6174608F8070318CD17CD0DF80CF90C6F
:10058000FA0CD00CCF0CCE0C0310CC0BA22A0130ED
:10059000F7070318EF2AF81BD42AD00DFA0DF90D2E
:1005A000F80DF7030319EF2AD01FE52AFA0A031DF5
:1005B000E52AF90A031DE52AF80A031DE52AF80CC5
:1005C000F90CFA0CF70A0319EF2A4508CD0049087F
:1005D000CD06CD1FED2AF817F32AF813F32AF701F9
:1005E000F801F901FA01031308008318FA2A4C30C4
:1005F00084008317F701F801F901FA010317CC0110
:10060000CD01CE01CF014B084A0449044804031927
:10061000392B2030D0000310C40DC50DC60DC70DF9
:10062000CC0DCD0DCE0DCF0D4B084F02031D222B4F
:100630004A084E02031D222B49084D02031D222B9E
:1006400048084C02031C332B4808CC024908031C01
:10065000490FCD024A08031C4A0FCE024B08031C67
:100660004B0FCF020314F70DF80DF90DFA0DD00B57
:100670000B2B4C088000840A4D088000840A4E0829
:100680008000840A4F088000031308000408031741
:10069000BC003B08BE000319682B3A08C7003908A4
:1006A000C6003808C5003708C400CB01CA01203095
:1006B000C9008230C80003137E227A080317BA00EB
:1006C0007908B9007808B8007708B700BE0B4D2B41
:1006D0003A08C7003908C6003808C5003708C40002
:1006E0004408B63CC400FA014508C800C517031009
:1006F000C50CC60CC70CFA0CF90CF80CF70CC40BA3
:10070000772BC81F8E2BF709F809F909FA09F70AA0
:100710000319F80A0319F90A0319FA0A7A08BA0040
:100720007908B9007808B8007708B700BA1FA52B78
:10073000BC03BC16B709B809B909BA09B70A031945
:10074000B80A0319B90A0319BA0A3B30C3009A3030
:10075000C200CA30C100C0010A30BE003B08031904
:10076000BC0A83143730840083173A08C70039085D
:10077000C6003808C5003708C4004308CB0042084B
:10078000CA004108C9004008C8000313F5227808D0
:10079000F708031DE22B03173B0A3E02031DD22B71
:1007A0000313E22B3C080319E52B0F393E02031912
:1007B000DB2B03181D2CBC1B1D2C3C1BE52B2030F8
:1007C000172C031320300317BC05BC1EF52BBC12DD
:1007D0003B08031DBC037708BC002D30C400031385
:1007E0006B2203173C08F700BC013B083E02031DC7
:1007F000052C7708BC002E30C40003136B220317AE
:100800003C08F7002030BC0500303030BC1E172CEF
:10081000BC123B08031DBC037708BC002D30C4008C
:1008200003136B2203173C08F700BC013030F707B5
:100830007708C40003136B22031783104308C70013
:100840004208C6004108C5004008C400CB01CA01E7
:10085000C9010A30C8000313F5227A080317C30040
:100860007908C2007808C1007708C000BE0BB12B20
:10087000031308008316941A402CB6011419B617F6
:100880003608B60A8312031793009308031D602CE1
:10089000031314138C1D4A2C130814168316260BED
:1008A000522C5B2C8312941214139413941601305F
:1008B0008316A600412E0230A600412E8312031794
:1008C00013087F3C031C9F2C031314138C1D662CF0
:1008D0001308141603179400831603132608023A0C
:1008E00083120319772C013A03198F2C982C0317C4
:1008F0001408013A03130319812C033A0319852CB8
:100900008A2C03308316A6008E2C04308316A60092
:100910008E2C831201308316A6008E2C9C2C03177C
:10092000140883160313A7000130A6009C2C831221
:1009300001308316A6009C2C412E83120317130846
:10094000803C031DBA2C031314138C1DA52C130813
:10095000141683162608043C031DB72C613083123D
:100960000317B80003134A2005308316A600412E52
:10097000831203171308803C0318432E83160313B6
:100980002608053C031D412E153084008317831271
:100990000317B7012030B80038080319D42C3708E2
:1009A0008000840AB80BCF2C831603132D08831202
:1009B0000317BA00831603132C0883120317B90018
:1009C000831603132B0883120317B800831603132F
:1009D0002A0883120317B700BE01BD014830BC00CE
:1009E0008530BB00031359207A088316AD007908BF
:1009F000AC007808AB007708AA003108831203170F
:100A0000BA0083160313300883120317B900831644
:100A100003132F0883120317B800831603132E083D
:100A200083120317B700BE01BD014830BC008530FA
:100A3000BB00031359207A088316B1007908B0006F
:100A40007808AF007708AE00350883120317BA00A4
:100A500083160313340883120317B9008316031394
:100A6000330883120317B800831603133208831266
:100A70000317B700BE01BD01BC018330BB000313E7
:100A800059207A088316B5007908B4007808B300B5
:100A90007708B200350883120317BA0083160313D0
:100AA000340883120317B900831603133308831223
:100AB0000317B80083160313320883120317B70015
:100AC000BE01BD014830BC008530BB000313592076
:100AD0007A088316B5007908B4007808B30077085F
:100AE000B200831483120317BA01B9014030B80071
:100AF0008130B70083160313350883120317BE0035
:100B000083160313340883120317BD0083160313DF
:100B1000330883120317BC008316031332088312B1
:100B20000317BB00031325217A088316B500790843
:100B3000B4007808B3007708B2000130A500153082
:100B4000A400543083120317C40003136B223D30FA
:100B50000317C40003136B228930840083162D0809
:100B600083120317BA00831603132C08831203178A
:100B7000B900831603132B0883120317B8008316DA
:100B800003132A0883120317B7000130BB000313B5
:100B9000462326300317C40003136B224830031783
:100BA000C40003136B223D300317C40003136B22F0
:100BB000893084008316310883120317BA00831624
:100BC0000313300883120317B900831603132F0889
:100BD00083120317B800831603132E08831203171A
:100BE000B7000130BB000313462326300317C400AF
:100BF00003136B2253300317C40003136B223D30E1
:100C00000317C40003136B22893084008316350850
:100C100083120317BA0083160313340883120317D1
:100C2000B90083160313330883120317B800831621
:100C30000313320883120317B7000230BB000313FB
:100C4000462314300317B500B601350836020318E1
:100C5000362E15303607840083170008B700B80019
:100C600003134A2001300317B607252EB8010313DA
:100C70004A200317B80103134A2001308316A60047
:100C8000A80A8312031703138C118A110A1223284E
:100C9000031787018801890100308316031386003A
:100CA0008030870083128A110A167828E030840089
:100CB000831300080319692E0630F800F701F70BBB
:100CC0005F2EF80B5E2E7B30F700F70B652E800B46
:100CD0005C2E0800831605118312051583168511F5
:100CE00083128511831685118312851583160511CC
:100CF00083120511831685118312851183168511C0
:100D00008312851583160511831205158316851127
:100D100083128511080083160511831205158316A9
:100D2000C5014508083C031CA72E851183128515B3
:100D30000330F700F70B9A2E831685118312851165
:100D40000330F700F70BA22E8316C50A912E8312EB
:100D50006A268A110A16822887175330F700F70B84
:100D6000AF2E871308008712003083164E1A013009
:100D7000F700F70EF70DF70DC030F7057708803E46
:100D8000CF004E080F39CF0786014F088312860027
:100D9000AC2683164E088312B30008000711643096
:100DA0008316E0008312562683168601831286017D
:100DB0008713071387128712831686010C3083125C
:100DC0008600AC2683168601383083128600AC2656
:100DD0008316CE018312B326B20183160C140317B7
:100DE0000908C039890003131F129F12003003172E
:100DF0008800831203131F10083003178500831621
:100E000003130108C03907388100640005308312DC
:100E10009000D2308F00F0308E0083168C15C030D9
:100E200083128B0494121413941394168A110A16C5
:100E3000892887168316CE08031D202F2030CE0068
:100E400086014E0883128600AC268712B30A08007A
:100E50003208203C031D302F83160C10882F83127C
:100E60007E08FA007D08F9007C08F8007B08F7008E
:100E700032088316C5000319442F0310FA0CF90C2D
:100E8000F80CF70CC50B3D2F771C852FFA01F901E3
:100E9000F8010130F700831232088316C5000319E8
:100EA000582F0310F70DF80DF90DFA0DC50B512F42
:100EB000FF30F706F806F906FA067708FB0578080A
:100EC000FC057908FD057A08FE0583123308F80051
:100ED000780832020319712F32088316CE0083126C
:100EE000B3263208103C031D7A2F10308316CE0033
:100EF0008312B3263530320784008313000883162B
:100F0000C500CE008312192783168312B20A8316F6
:100F100083128A110A16982880308316DF00DF08B2
:100F20000319B22F5F085E0503199B2F0511831269
:100F300005159E2F83160511831205110330F70046
:100F4000F70BA02F83168511831285150330F70048
:100F5000F70BA82F831685118312851103108316B2
:100F6000DF0C8F2F05150330F700F70BB52F851118
:100F7000831285150330F700F70BBC2F8316051578
:100F8000DF018312051DC72F8316DF0A8312831624
:100F9000851183128511FA308316E00083125626DC
:100FA00083165F08F800831208008E30F70083165E
:100FB0006708F8006608F900FA01F808031DEA2F2F
:100FC0007908F800F9010830F702F808031DEA2F44
:100FD000F701F22F0310F81BF12FF90DF80DF703AD
:080FE000EA2FF8138312080048
:101000008316E201E101E401E301DE015E08073C31
:10101000031C25280310E10DE20D851183128515AF
:1010200083160515DF018312051D19288316DF0AB3
:1010300083128316E00185118312851183165F08E0
:101040006004031D6114DE0A0628051183120511D0
:101050008316851183128515831605158511831254
:1010600085118316DE015E08073C031C522803101D
:10107000E30DE40D85118312851583160515DF0137
:101080008312051D46288316DF0A83128316E001AA
:1010900085118312851183165F086004031D631494
:1010A000DE0A33286108E6006308E5006508F800F9
:1010B0006608F900831208008E30F7008316450891
:1010C000F7024608F9004708F800F917F70803196E
:1010D00074280310F908031D7028F80803197428F0
:1010E000F90CF80CF70B6928C61F7B28F809F909D9
:1010F000F80A0319F90A83120800F801F901F70147
:10110000FA0183165308031D882852080319A228E0
:101110001030D4000310D00DD10DF70DFA0D530887
:101120007A02031D952852087702031C9E28520854
:10113000F702031CFA035308FA020314F80DF90D21
:10114000D40B8A28831208008316CE018A118312D9
:10115000B3268A1583164808D1004708D00003300B
:10116000D300E830D20083127D2079088316CA00AC
:101170007808C90030304907F4004808D100470812
:10118000D0000330D300E830D20083127D207708EE
:101190008316C9007A08CA00D1004908D000D301DB
:1011A0006430D20083127D2079088316CA00780843
:1011B000C90030304907F5004808D1004708D00081
:1011C0000330D300E830D20083127D2077088316E5
:1011D000C9007A08CA00D1004908D000D3016430A0
:1011E000D20083127D2077088316C9007A08CA00CE
:1011F000D1004908D000D3010A30D20083127D20EB
:1012000079088316CA007808C90030304907A2005F
:101210004808D1004708D0000330D300E830D2009E
:1012200083127D2077088316C9007A08CA00D1008E
:101230004908D000D3016430D20083127D207708A2
:101240008316C9007A08CA00D1004908D000D3012A
:101250000A30D20083127D2077088316C9007A08ED
:10126000CA0030304907A3005430CE008A118312DF
:1012700019278A1565308316CE008A118312192723
:101280008A156D308316CE008A11831219278A15AC
:1012900070308316CE008A11831219278A153A30CE
:1012A0008316CE008A11831219278A1574088316B3
:1012B000CE008A11831219278A1575088316CE006D
:1012C0008A11831219278A152E308316CE008A11AF
:1012D000831219278A1583162208CE008A118312D9
:1012E00019278A1583162308CE008A11831219271D
:1012F0008A158316CE018A11831219278A15433065
:101300008316CE008A11831219278A158A110A16AC
:10131000652B10308316CE008A118312B3268A15EE
:1013200083164808D1004708D0000330D300E830C6
:10133000D20083127D2079088316CA007808C9007C
:1013400030304907F4004808D1004708D000033086
:10135000D300E830D20083127D2077088316C900BD
:101360007A08CA00D1004908D000D3016430D20005
:1013700083127D2079088316CA007808C9003030AE
:101380004907F5004808D1004708D0000330D300D2
:10139000E830D20083127D2077088316C9007A08CE
:1013A000CA00D1004908D000D3016430D2008312B2
:1013B0007D2077088316C9007A08CA00D100490841
:1013C000D000D3010A30D20083127D207908831621
:1013D000CA007808C90030304907A2004808D10087
:1013E0004708D0000330D300E830D20083127D20BC
:1013F00077088316C9007A08CA00D1004908D000CE
:10140000D3016430D20083127D2077088316C9008F
:101410007A08CA00D1004908D000D3010A30D200AE
:1014200083127D2077088316C9007A08CA003030FD
:101430004907A3004830CE008A11831219278A1564
:1014400075308316CE008A11831219278A156D30E4
:101450008316CE008A11831219278A1569308316E4
:10146000CE008A11831219278A1564308316CE00A4
:101470008A11831219278A153A308316CE008A11F1
:10148000831219278A1574088316CE008A118312D5
:1014900019278A1575088316CE008A118312192719
:1014A0008A152E308316CE008A11831219278A15C9
:1014B00083162208CE008A11831219278A158316F3
:1014C0002308CE008A11831219278A158316CE01AC
:1014D0008A11831219278A1525308316CE008A11A6
:1014E000831219278A158A110A16832B8316D701AE
:1014F000D601550856020318952A851283128512C3
:101500005330F700F70B822A0718882A0310892A1C
:1015100003148316D70D8512831285165330F700F6
:10152000F70B902A8316D60A792A5708F8008312F7
:1015300008008316C801C701C601C501CC01CB0153
:10154000CA01C9010130CD004D080A3C031C902B93
:10155000CE014E08CF000130D000C830D500033096
:10156000D502031CBD2AD53084008313000803195B
:10157000BD2ABB2ABB2A800BBA2AD0080319C22A6B
:101580000130D0008512831285128714071183164B
:101590004F0BCD2A0430D400E42A4F08033C031D2E
:1015A000D42A0630D400E42A4F08043C031DDB2A69
:1015B0000130D400E42A4F08063C031DE22A033020
:1015C000D400E42A4F08D4000310D40D500BEA2AAB
:1015D0005414EB2A54100310D40D54145408D5009D
:1015E0000730D6000330F700F70BF42AD70156086E
:1015F000570203181A2B8512831285128316550879
:101600000139031D072B83128710092B83168312C0
:10161000871403108316D50C5330F700F70B0E2BED
:101620008512831285165330F700F70B152B83169E
:10163000D70AF72A0830D500831276228316D30101
:101640007808D2000430D50083127622780E8316F3
:10165000D100F030D105831207158316D501550846
:101660005104F7005208FA007708F8005208F90010
:1016700079087908E7007808E6008A118312D527EF
:101680008A157A088316C8007908C7007808C6004A
:101690007708C50083108312A7018B1BA7178B1334
:1016A00083164C0883120317BA00831603134B08E2
:1016B00083120317B900831603134A088312031712
:1016C000B80083160313490883120317B700831663
:1016D0000313480883120317BE0083160313470839
:1016E00083120317BD0083160313460883120317E2
:1016F000BC0083160313450883120317BB008A112D
:10170000031325218A15A71B8B177A088316CC0093
:101710007908CB007808CA007708C900CD0AA42A46
:101720008312A7018B1BA7178B1383164C088312F8
:101730000317BA00831603134B0883120317B9006B
:10174000831603134A0883120317B8008316031382
:10175000490883120317B700BE01BD012030BC0049
:101760008230BB008A11031359208A15A71B8B17DF
:101770007A088316CC007908CB007808CA0077086D
:10178000C9008312A7018B1BA7178B1383164C0864
:1017900083120317BA00831603134B08831203172F
:1017A000B900831603134A0883120317B80083167F
:1017B0000313490883120317B700BE01BD01BC0122
:1017C0008130BB008A11031359208A15A71B8B1780
:1017D0007A088316CC007908CB007808CA0077080D
:1017E000C9004908F7004A08F8004B08F9004C08FE
:1017F000FA0083128A110A16882B8316C80CC70CAC
:10180000C80CC70CC80CC70CC80CC70C0F30C805D7
:101810004708583CC7004808031C480F112C0230E9
:10182000122C023CC8000F30CE008A118312B3265E
:101830008A158316CE018A11831219278A1557300B
:101840008316CE008A11831219278A1561308316F8
:10185000CE008A11831219278A1574308316CE00A0
:101860008A11831219278A1565308316CE008A11D2
:10187000831219278A1572308316CE008A118312BB
:1018800019278A153A308316CE008A118312192738
:101890008A1583164808D1004708D0002730D300A6
:1018A0001030D20083127D2079088316CF0078088B
:1018B000CE0030304E07C9004808D1004708D0009C
:1018C0002730D3001030D20083127D207708831692
:1018D000CE007A08CF00D1004E08D0000330D300EC
:1018E000E830D20083127D2079088316CF00780873
:1018F000CE0030304E07CA004808D1004708D0005B
:101900002730D3001030D20083127D207708831651
:10191000CE007A08CF00D1004E08D0000330D300AB
:10192000E830D20083127D2077088316CE007A0833
:10193000CF00D1004E08D000D3016430D200831212
:101940007D2079088316CF007808CE0030304E070E
:10195000CB004808D1004708D0002730D300103012
:10196000D20083127D2077088316CE007A08CF003C
:10197000D1004E08D0000330D300E830D2008312EB
:101980007D2077088316CE007A08CF00D1004E085C
:10199000D000D3016430D20083127D2077088316F3
:1019A000CE007A08CF00D1004E08D000D3010A3013
:1019B000D20083127D2079088316CF007808CE00EC
:1019C00030304E07CC004808D1004708D0002730FF
:1019D000D3001030D20083127D2077088316CE000A
:1019E0007A08CF00D1004E08D0000330D300E83091
:1019F000D20083127D2077088316CE007A08CF00AC
:101A0000D1004E08D000D3016430D20083127D2073
:101A100077088316CE007A08CF00D1004E08D00098
:101A2000D3010A30D20083127D2077088316CE00BE
:101A30007A08CF0030304E07CD004908303C031DF6
:101A4000232D0030242D4908C9004908CE008A11F1
:101A5000831219278A1583164A08CE008A11831229
:101A600019278A1583164B08CE008A11831219276D
:101A70008A1583164C08CE008A11831219278A15FD
:101A800083164D08CE008A11831219278A158316F2
:101A9000CE018A11831219278A1563308316CE006E
:101AA0008A11831219278A156D308316CE008A1188
:0C1AB000831219278A158A110A16AE2B22
:10200000840183131F308305FF30A800A81528081A
:102010008316870083122816280883168700B0309D
:102020009300363083129400AF01B001B101B201C8
:10203000B3013410D601D801D701F101F201FF300C
:10204000FE00FD00FC00FB008316A501A401013089
:10205000A600A701A801A901AD01AC01AB01AA012D
:10206000B101B001AF01AE01B501B401B301B201DC
:102070000330B60003170908C039890003131F1283
:102080009F1200300317880083128701880189019D
:102090000313A901AA012030B500B600B700B800AB
:1020A000B900BA00BB00BC00BD00BE00BF00C0004C
:1020B000C100C200C300C400C500C600C700C800FC
:1020C000C900CA00CB00CC00CD00CE00CF00D000AC
:1020D000D100D200D300D400D501D900DA00DB0052
:1020E000DC00DD00DE018316B7010A128312482EE0
:1020F0000A16C8308316E0000A12831256260A1602
:102100000A128B2E0A161930831687000A128312C0
:10211000CE2E0A16831605108312051083168C1511
:10212000C03083128B04341C992834100A12282FD3
:102130000A160A126A260A1603308316DE000A12ED
:1021400083128C270A1678088316D500550BB628FB
:102150000430D600FA30E0000A12831256260A161E
:102160008316D60BAA280130F800422B0A128A15D2
:10217000831200200A168A1179088316D400780881
:10218000D3005408E7005308E6000A128312D5274B
:102190000A16A7018B1BA7178B130A300317C7005A
:1021A000D730C6002330C5007830C4007A08CB0091
:1021B0007908CA007808C9007708C8000A12031312
:1021C0007E220A16A71B8B178310A7018B1BA7174C
:1021D0008B130317BA01B901A030B8008430B700DF
:1021E0007A08BE007908BD007808BC007708BB00FB
:1021F0000A12031325210A16A71B8B177A088316C8
:10220000CC007908CB007808CA007708C9000C30E8
:10221000E0000A12831256260A160A126A260A16C5
:1022200005308316DE000A1283128C270A160A1262
:102230008A1500200A168A1179088316D2007808B8
:10224000D1005208E7005108E6000A128312D52790
:102250000A16A7018B1BA7178B1354300317C7004F
:10226000E330C6002530C5007A30C4007A08CB00C0
:102270007908CA007808C9007708C8000A12031351
:102280007E220A16A71B8B178310A7018B1BA7178B
:102290008B130317BA01B9018030B8008130B70041
:1022A0007A08BE007908BD007808BC007708BB003A
:1022B0000A12031325210A16A71B8B17770883160A
:1022C000D6007808D7007908D8007A08D9005208D3
:1022D000E7005108E6000A128312D5270A16A70163
:1022E0008B1BA7178B13A2300317C700E730C6005C
:1022F000BB30C5006C30C4007A08CB007908CA0036
:102300007808C9007708C8000A1203137E220A164B
:10231000A71B8B1777088316DA007808DB0079088B
:10232000DC007A08DD005208E7005108E6000A12D6
:102330008312D5270A16A7018B1BA7178B138316A9
:102340005D0883120317C700831603135C0883120A
:102350000317C600831603135B0883120317C50017
:10236000831603135A0883120317C4007A08CB009C
:102370007908CA007808C9007708C8000A12031350
:102380007E220A16A71B8B178310A7018B1BA7178A
:102390008B138316590883120317BA00831603138D
:1023A000580883120317B9008316031357088312C2
:1023B0000317B80083160313560883120317B700D8
:1023C0007A08BE007908BD007808BC007708BB0019
:1023D0000A12031325210A16A71B8B177A088316E6
:1023E000C8007908C7007808C6007708C5008314BC
:1023F0008312A7018B1BA7178B1383164C0883121C
:102400000317BA00831603134B0883120317B9008E
:10241000831603134A0883120317B80083160313A5
:10242000490883120317B700BE01BD014830BC0044
:102430008330BB000A12031325210A16A71B8B1732
:1024400077088316D6007808D7007908D8007A086C
:10245000D9005208E7005108E6000A128312D52776
:102460000A16A7018B1BA7178B13AC300317C700E5
:10247000C530C6002730C5007130C4007A08CB00D3
:102480007908CA007808C9007708C8000A1203133F
:102490007E220A16A71B8B178310A7018B1BA71779
:1024A0008B130A300317BA00D730B9002330B800B5
:1024B0007830B7007A08BE007908BD007808BC0003
:1024C0007708BB000A12031325210A16A71B8B17D6
:1024D000A7018B1BA7178B138316590883120317A9
:1024E000C70083160313580883120317C600831608
:1024F0000313570883120317C500831603135608E6
:1025000083120317C4007A08CB007908CA00780840
:10251000C9007708C8000A1203137E220A16A71BF7
:102520008B1777088316D6007808D7007908D8006B
:102530007A08D90083108312A7018B1BA7178B136E
:102540008316590883120317BA0083160313580819
:1025500083120317B9008316031357088312031756
:10256000B80083160313560883120317B7008316A7
:102570000313480883120317BE008316031347088A
:1025800083120317BD008316031346088312031733
:10259000BC0083160313450883120317BB000A12FD
:1025A000031325210A16A71B8B177A088316D00060
:1025B0007908CF007808CE007708CD008312A701F4
:1025C0008B1BA7178B1383164C0883120317C700A6
:1025D000831603134B0883120317C60083160313D5
:1025E0004A0883120317C500831603134908831290
:1025F0000317C400CB01CA014830C9008530C800A8
:102600000A1203137E220A16A71B8B177A08831659
:10261000BB007908BA007808B9007708B8008312BF
:10262000A7018B1BA7178B13831650088312031760
:10263000C700831603134F0883120317C6008316BF
:1026400003134E0883120317C500831603134D08A6
:1026500083120317C400CB01CA014830C90085307A
:10266000C8000A1203137E220A16A71B8B177A08CA
:102670008316BF007908BE007808BD007708BC004B
:102680000030F8007808C400C40803194A2B8312EC
:10269000992883163B08C8003A08C7003908C600C5
:1026A0003808C5000A128A1583125C200A168A119E
:1026B00079088316C6007808C5004608C800450892
:1026C000C7000A128A158312A4280A168A118316D3
:1026D0003F08C8003E08C7003D08C6003C08C500CA
:1026E0000A128A1583125C200A168A117908831649
:1026F000C6007808C5004608C8004508C7000A1289
:102700008A15831289290A168A110A128A15992AAA
:102710000A168A117A088316C3007908C20078085D
:10272000C1007708C0004308C8004208C70041083C
:10273000C6004008C5000A128A1583125C200A16DA
:102740008A1179088316C6007808C5004608C800B3
:102750004508C7000A128A158312FD2B0A168A1132
:1027600083163B08AD003A08AC003908AB003808C6
:10277000AA003F08B1003E08B0003D08AF003C0889
:10278000AE004308B5004208B4004108B300400859
:08279000B200831299286300D6
:04400E00C22FFF3F7F
:00000001FF
;PIC16F886
;CRC=0FED  CREATED="26-Aug-12 11:25"
